:100000000C942A000C9447000C9447000C94470071
:100010000C9447000C9447000C9447000C94470044
:100020000C9447000C9447000C9447000C94470034
:100030000C9447000C9447000C9447000C94470024
:100040000C9447000C9447000C9447000C94470014
:100050000C94470011241FBECFE5D8E0DEBFCDBF12
:1000600010E0A0E6B0E0E6E5FBE102C005900D92ED
:10007000A43DB107D9F720E0A4EDB0E001C01D9286
:10008000A93EB207E1F70E9479010C94A90D0C94E6
:1000900000008FE081BD08959C0183E083BF83E869
:1000A00008C082BF98B7916098BFA89508B600FEB7
:1000B000FDCF21503109A8F713BE0895AB01BC0153
:1000C00082E083BF9EEC08C092BF88B7816088BF82
:1000D000A89508B600FEFDCF41505109610971098C
:1000E00098F713BE0895662311F0C09A01C0C09816
:1000F000C19882BB8FEF81BBC29A00000000000054
:10010000C2980895C098C19A11BA90B3C29A0000DB
:100110000000000011BA90B3C29899239CF30E948A
:1001200073000895B89AB99ABA9A80E190E00E9453
:100130004C0060E080E30E94730085E090E00E9444
:100140004C0060E080E30E94730081E090E00E9438
:100150004C0060E08CE30E94820060E08CE00E9432
:10016000820060E086E00E94820060E081E00E9400
:100170008200089560E081E00E9482000895CF939C
:10018000C62F98E2899FC00D112460E082E00E9492
:100190008200CC2331F060E084E10E948200C150F3
:1001A000D1F7CF910895CF93DF93EC012196FC0115
:1001B0008081882331F061E00E9482008991811161
:1001C000FACFDF91CF910895CF93DF931ABA1BBA7C
:1001D0004AB321E030E0F90102C0EE0FFF1F8A951B
:1001E000E2F7CF01842B8ABB8BB3EB0124960C2E54
:1001F00002C0220F331F0A94E2F7282B2BBB81E0A9
:1002000090E00E944C0029B330E002C0359527955C
:10021000CA95E2F781E090E020FF02C080E090E024
:10022000DF91CF9108950F931F93CF93DF9300E059
:1002300010E018C0BE01C8010E94E400009749F018
:10024000000F111F000F111FC00FD11FCE0101960B
:100250000CC02196C430D10569F70F5F1F4F0430E1
:10026000110519F0C0E0D0E0E5CFDF91CF911F91EB
:100270000F910895CF93DF93CDB7DEB761970FB697
:10028000F894DEBF0FBECDBF0E94BA0060E080E0F0
:100290000E94BF008FE0E0E6F0E0DE0111960190E1
:1002A0000D928A95E1F784EF91E00E944C00CE0117
:1002B00001960E94D30060E081E00E94BF0086E0CA
:1002C000EFE6F0E0DE01119601900D928A95E1F7DC
:1002D000CE0101960E94D30088EE93E00E944C006C
:1002E00061960FB6F894DEBF0FBECDBFDF91CF9100
:1002F0000895CF93DF93CDB7DEB7CB59D3400FB678
:10030000F894DEBF0FBECDBF0E9449000E9492004C
:100310000E94BA000E943A010E94BA009E012F5F1B
:100320003F4FC656DC4F39832883CA59D34082E3F6
:1003300091E0F9019C01119221503040E1F74AEB24
:1003400052E05A83498380E090E0A0E8BEE38B83CB
:100350009C83AD83BE832EE632E038872F83898766
:100360009A87AB87BC876AE272E07E876D878F874A
:10037000988BA98BBA8B3C8B2B8B8D8B9E8BAF8BE9
:10038000B88F5A8F498F8B8F9C8FAD8FBE8F58A39C
:100390004F8F89A39AA3ABA3BCA35EA34DA30F2E3B
:1003A000812C912CA12CFFE3BF2EF02D8FA298A6BB
:1003B000A9A6BAA63CA72BA78DA79EA7AFA7B8ABA7
:1003C0003AAB29AB8BAB9CABADABBEAB38AF2FAB75
:1003D00089AE9AAEABAEBCAE5EAF4DAF23968CAFDE
:1003E0009DAFAEAFBFAF23970F2EF0E1CF2EF3E05E
:1003F000DF2EF02D2596DFAECEAE259729968CAF59
:100400009DAFAEAFBFAF29972B96DFAECEAE2B9789
:100410002F968CAE9DAEAEAEBFAE2F9761965FAFFE
:100420004EAF619765968CAF9DAFAEAFBFAF65978E
:1004300067963FAF2EAF67976B968CAF9DAFAEAF11
:10044000BFAF6B976D967FAF6EAF6D97A1968CAF78
:100450009DAFAEAFBFAFA197A3963FAF2EAFA3970F
:10046000A7968CAF9DAFAEAFBFAFA797A9965FAF72
:100470004EAFA997AD968CAF9DAFAEAFBFAFAD9766
:10048000AF965FAF4EAFAF97E3968CAF9DAFAEAF79
:10049000BFAFE397E5965FAF4EAFE597E9968CAFB8
:1004A0009DAFAEAFBFAFE997EB965FAF4EAFEB97A7
:1004B000EF968CAF9DAFAEAFBFAFEF97C158DF4F98
:1004C00039832883CF57D040CF57DF4F8883998314
:1004D000AA83BB83C158D040CB57DF4F39832883D1
:1004E000C558D040C957DF4F88839983AA83BB83FF
:1004F000C758D040C557DF4F59834883CB58D040A9
:10050000C357DF4F88839983AA83BB83CD58D040DC
:10051000CF56DF4F39832883C159D040CD56DF4FA6
:1005200088839983AA83BB83C359D040C956DF4FC0
:1005300079836883C759D0400F2E412C512CF0E8A5
:100540006F2EFFE37F2EF02DC756DF4F4882598272
:100550006A827B82C959D0408E010D5C1E4F0F2EDE
:10056000FCE2EF2EFF24F394F02DF801B701119275
:1005700061507040E1F7F8013183208382829382D9
:10058000A482B5823783268380879187A287B38729
:100590005587448786869786A08AB18A538B428B7B
:1005A000848B958BA68BB78B0F2EFFE36F2EF3E01A
:1005B0007F2EF02D718E608E828F938FA48FB58FDA
:1005C00068EB71E0778F668F80A391A3A2A3B3A39A
:1005D00075A264A286A397A3A0A7B1A733A722A759
:1005E00084A695A6A6A6B7A631AB20AB82AB93ABEB
:1005F000A4ABB5AB37AB26AB80AE91AEA2AEB3AE7B
:1006000035AF24AFB801625C7F4FFB0180839183DB
:10061000A283B383CB58DE4F59834883C557D1405B
:10062000C958DE4F88829982AA82BB82C757D140BF
:10063000C558DE4F59834883CB57D140C358DE4F4E
:1006400088839983AA83BB83CD57D140CF57DE4F90
:1006500079826882C158D1400F2E212C312CF0E4D0
:100660004F2EFFE35F2EF02DCD57DE4F28823982CB
:100670004A825B82C358D140C957DE4F39832883F1
:10068000C758D140C757DE4F288239824A825B82E1
:10069000C958D140C357DE4F39832883CD58D14044
:1006A000C157DE4F88829982AA82BB82CF58D1403F
:1006B000CD56DE4F39832883C359D140CB56DE4F08
:1006C00088839983AA83BB83C559D140C756DE4F1F
:1006D00059834883C959D140C556DE4F88829982D3
:1006E000AA82BB82CB59D140C156DE4F5983488381
:1006F000CF59D140CF55DE4F88839983AA83BB83DE
:10070000C15AD140CB55DE4F79826882C55AD1405B
:10071000C955DE4F88839983AA83BB83C75AD140CA
:1007200068EB71E0C555DE4F79836883CB5AD140C1
:10073000C355DE4F88839983AA83BB83CD5AD140AA
:10074000CF54DE4F79826882C15BD140CD54DE4FF9
:1007500088839983AA83BB83C35BD140C954DE4F8E
:1007600039832883C75BD140C754DE4F2882398242
:100770004A825B82C95BD1406EEE71E0C354DE4FAA
:1007800079836883CD5BD140C154DE4F28823982A2
:100790004A825B82CF5BD140CD53DE4F5983488381
:1007A000C35CD140CB53DE4F88829982AA82BB8240
:1007B000C55CD1400F2EF0E7EF2EF3E0FF2EF02DB9
:1007C000C753DE4FF982E882C95CD140C553DE4F82
:1007D00088839983AA83BB83CB5CD140C153DE4F0E
:1007E00079826882CF5CD140CF52DE4F2882398235
:1007F0004A825B82C15DD140CB52DE4F3983288370
:10080000C55DD140C952DE4F288239824A825B825F
:10081000C75DD140BE01615A7D4F0F2EFCEF7F2E88
:10082000F02DFB0111927A94E9F7FB01F182E0824D
:1008300082839383A483B58357834683808791877C
:10084000A287B387F586E48686869786A08AB18AD2
:10085000F38AE28A848B958BA68BB78B518F408F5E
:10086000828F938FA48FB58FF78EE68E80A291A290
:10087000A2A2B3A20F2EF8EB6F2E77247394F02D63
:1008800075A264A286A397A3A0A7B1A7F3A6E2A628
:1008900084A795A7A6A7B7A7D1AAC0AA82AB93ABF6
:1008A000A4ABB5AB57AB46AB80AF91AFA2AFB3AF84
:1008B00035AF24AF3B01FEE36F0E711CF301808363
:1008C0009183A283B383CF55DD4F59834883C15AA7
:1008D000D240CD55DD4F88839983AA83BB83C35A09
:1008E000D240C955DD4FD982C882C75AD240C755B8
:1008F000DD4F88839983AA83BB83C95AD240C355ED
:10090000DD4F59834883CD5AD240C155DD4F88838E
:100910009983AA83BB83CF5AD240CD54DD4FD9826D
:10092000C882C35BD240CB54DD4F88839983AA83AE
:10093000BB83C55BD240C754DD4FF982E882C95BF7
:10094000D240C554DD4F88839983AA83BB83CB5B98
:10095000D2400F2EFAE26F2EF2E07F2EF02DC1541E
:10096000DD4F79826882CF5BD240CF53DD4F8883E1
:100970009983AA83BB83C15CD240CB53DD4F79827C
:100980006882C55CD240C953DD4F88839983AA83AE
:10099000BB83C75CD240C553DD4F79826882CB5C94
:1009A000D240C353DD4F88839983AA83BB83CD5C38
:1009B000D240CF52DD4F79826882C15DD240CD52A4
:1009C000DD4F88839983AA83BB83C35DD240C9521C
:1009D000DD4F79826882C75DD240C752DD4F888380
:1009E0009983AA83BB83C95DD240C352DD4F39834B
:1009F0002883CD5DD240C152DD4F88839983AA837D
:100A0000BB83CF5DD240CD51DD4F59834883C35E58
:100A1000D240CB51DD4F88839983AA83BB83C55EC7
:100A2000D240C751DD4FD982C882C95ED240C5517C
:100A3000DD4F88839983AA83BB83CB5ED240C151AB
:100A4000DD4FF982E882CF5ED240CF50DD4F888201
:100A50009982AA82BB82C15FD240CB50DD4FF9821E
:100A6000E882C55FD240C950DD4F88839983AA834D
:100A7000BB83C75FD240C550DD4F39832883CB5F2E
:100A8000D240C350DD4F88839983AA83BB83CD5F57
:100A9000D240CF5FDC4F39832883C150D340CD5F34
:100AA000DC4F88839983AA83BB83C350D340C95F3B
:100AB000DC4FD982C882C750D340C75FDC4F8883E0
:100AC0009983AA83BB83C950D340C35FDC4F59834A
:100AD0004883CD50D340C15FDC4F88839983AA837C
:100AE000BB83CF50D340CD5EDC4F39832883C351C5
:100AF000D340CB5EDC4F88839983AA83BB83C551E7
:100B0000D340C75EDC4F79826882C951D340C55E4D
:100B1000DC4F88829982AA82BB82CB51D34081E18B
:100B2000E1E8F0E0DE01A55ABC4F01900D928A95F4
:100B3000E1F721E030E02C0F3D1FC459DC4F398331
:100B40002883CC56D34083E390E0C259DC4F99838D
:100B50008883CE56D34081E1E2E9F0E0ABE5B3E033
:100B6000AC0FBD1F559601900D928A95E1F7CF57B6
:100B7000DC4F19830883C158D34082E390E0CD57FE
:100B8000DC4F99838883C358D34081E1E3EAF0E0E6
:100B9000ABE5B3E0AC0FBD1F9A9601900D928A951C
:100BA000E1F7CA56DC4F79836883C659D3408AE29D
:100BB00090E0C856DC4F99838883C859D3408CE0B5
:100BC000E5E7F0E0A8EDB0E001900D928A95E1F73D
:100BD00060E080E00E94BF0088ED90E00E94D300BA
:100BE0001092D800BE01655A7C4F88ED90E00E94BB
:100BF000B80A60E081E00E94BF0088ED90E00E94AA
:100C0000D300C12CD12C6894EE24E1F8F12C0F2EE6
:100C1000F5E19F2EF02D0F2EF8EDAF2EF0E0BF2E58
:100C2000F02DF092D500E092D400F092D700E0923F
:100C3000D6000E9413018C0186E990E00E944C00CE
:100C40000D30110519F5C114D10421F031E0C31A9A
:100C5000D10804C06894CC24C1F8D12C0E94B806F5
:100C60009C9CB0019D9C700D11248BE593E08C0F32
:100C70009D1F680F791FC5010E94B80A60E081E0DE
:100C80000E94BF00C5010E94D300CBCF0F301105D9
:100C900031F592E0C916D10421F0EFEFCE1ADE0A49
:100CA00002C0C12CD12C0E94B8069C9CB0019D9C16
:100CB000700D11240F2EFBE56F2EF3E07F2EF02D2B
:100CC0006C0E7D1E660D771DC5010E94B80A60E09E
:100CD00081E00E94BF00C5010E94D300A2CF0E3068
:100CE000110509F09ECF9C9C80019D9C100D112444
:100CF0002BE533E02C0F3D1F020F131F6DB77EB79E
:100D0000655171090FB6F8947EBF0FBE6DBFADB7C8
:100D1000BEB7119685E1F80101900D928A95E1F731
:100D20000E945C070E94BA000E94BA008CE0E5E7CE
:100D3000F0E0D50101900D928A95E1F760E080E046
:100D40000E94BF00C5010E94D300F5011082B801C6
:100D5000C5010E94B80A60E081E00E94BF00C501A1
:100D60000E94D3000FB6F894DEBF0FBECDBF59CF9F
:100D70001092D80060E081E00E94BF0088ED90E012
:100D80000E94D30008954F925F926F927F928F924C
:100D90009F92AF92BF92CF92DF92EF92FF920F930A
:100DA0001F93CF93DF937C014A015B01BC9A809132
:100DB000D4009091D5008330910561F018F401972B
:100DC00091F005C08430910541F0059749F0C0E0ED
:100DD000D0E00BC0CCE9DFEF08C0C8E3DFEF05C00F
:100DE000C6E0DFEF02C0C4E6D0E0B701660F771FB0
:100DF00080E090E00E94A90927E137EB41E558E344
:100E00000E94370A9B01AC0160E070E080E89FE33C
:100E10000E9401090E947A096B0180E29EE4B601FA
:100E20000E94A40A80E090E00E94A909A501940113
:100E30000E94370A2B013C01BE01DD0F880B990B84
:100E40000E94AB099B01AC01C301B2010E9495084D
:100E50000E9473098B01EF2821F0161617064CF03B
:100E60001AC0C501B4010E947A09CB010E944C004E
:100E700012C0C0E0D0E0E12CF12CC49AC701B60149
:100E80000E945E00C498C701B6010E945E002196D0
:100E90000C171D0791F7DF91CF911F910F91FF90D4
:100EA000EF90DF90CF90BF90AF909F908F907F900A
:100EB0006F905F904F9008955F926F927F928F92A4
:100EC0009F92AF92BF92CF92DF92EF92FF920F93D9
:100ED0001F93CF93DF9300D0CDB7DEB7CFA0D8A4B8
:100EE000EDA0FEA00E94BA0008ED10E08CE0E4EB5B
:100EF000F0E0D80101900D928A95E1F760E080E082
:100F00000E94BF00C8010E94D3008091D7008F9338
:100F10008091D6008F9380EC90E09F938F931F93E6
:100F20000F930E94BF0A60E081E00E94BF00C801E9
:100F30000E94D3008091D5008F938091D4008F932D
:100F400089EC90E09F938F931F930F930E94BF0AA9
:100F500068E081E00E94BF00C8010E94D3001A82AD
:100F6000198289819A810FB6F894DEBF0FBECDBF7A
:100F70008C159D0508F0C6C0512C0F2EF5EC8F2E58
:100F8000F0E09F2EF02D58010F2EF5E06F2E712C02
:100F9000F02D0E9413018C0165E070E080E090E08C
:100FA0000E945E000115110509F47DC0063011058F
:100FB00061F024F40530110511F13BC00930110531
:100FC00059F10A30110571F034C08091D60090912A
:100FD000D7008430910568F501969093D7008093EF
:100FE000D6002AC08091D6009091D700823091051A
:100FF00000F101979093D7008093D6001DC0809197
:10100000D4009091D5008A30910598F40196909380
:10101000D5008093D40010C08091D4009091D50069
:101020008230910530F001979093D5008093D400E1
:1010300003C031E0531237C08091D4009091D500A5
:10104000069720F07092D5006092D4008091D7006E
:101050008F938091D6008F939F928F92BF92AF9281
:101060000E94BF0A65E081E00E94BF00C5010E94A6
:10107000D3008091D5008F938091D4008F939F925D
:101080008F92BF92AF920E94BF0A6FE081E00E94F0
:10109000BF00C5010E94D3000FB6F894DEBF0FBE9B
:1010A000CDBF5524539429813A8189819A81F901D0
:1010B000EE0FFF1FE20FF31FEE0FFF1FEE0DFF1DE0
:1010C0004281538164817581FC01EE0FFF1FE80F9F
:1010D000F91FEE0FFF1FEE0DFF1D808191810E9411
:1010E000C30664E670E080E090E00E945E008981C3
:1010F0009A8101969A83898389819A818C159D05AD
:1011000008F447CF0F900F90DF91CF911F910F916F
:10111000FF90EF90DF90CF90BF90AF909F908F9017
:101120007F906F905F9008955058BB27AA270E9428
:10113000AC080C94FD090E94EF0938F00E94F609F2
:1011400020F039F49F3F19F426F40C94EC090EF4C6
:10115000E095E7FB0C94E609E92F0E940E0A58F38C
:10116000BA17620773078407950720F079F4A6F58C
:101170000C94300A0EF4E0950B2EBA2FA02D0B0123
:10118000B90190010C01CA01A0011124FF27591BCC
:1011900099F0593F50F4503E68F11A16F040A22FD2
:1011A000232F342F4427585FF3CF46953795279543
:1011B000A795F0405395C9F77EF41F16BA0B620B42
:1011C000730B840BBAF09150A1F0FF0FBB1F661F89
:1011D000771F881FC2F70EC0BA0F621F731F841FCC
:1011E00048F4879577956795B795F7959E3F08F0F2
:1011F000B0CF9395880F08F09927EE0F97958795B4
:1012000008950E9415090C94FD090E94F60958F0F2
:101210000E94EF0940F029F45F3F29F00C94E609A1
:1012200051110C94310A0C94EC090E940E0A68F3D7
:101230009923B1F3552391F3951B550BBB27AA278F
:1012400062177307840738F09F5F5F4F220F331FC9
:10125000441FAA1FA9F335D00E2E3AF0E0E832D091
:1012600091505040E695001CCAF72BD0FE2F29D094
:10127000660F771F881FBB1F261737074807AB0766
:10128000B0E809F0BB0B802DBF01FF2793585F4FDB
:101290003AF09E3F510578F00C94E6090C94310A1F
:1012A0005F3FE4F3983ED4F3869577956795B795BD
:1012B000F7959F5FC9F7880F911D9695879597F9C8
:1012C0000895E1E0660F771F881FBB1F6217730741
:1012D0008407BA0720F0621B730B840BBA0BEE1F56
:1012E00088F7E09508950E947A096894B1110C94EA
:1012F000310A08950E94160A88F09F5798F0B92F76
:101300009927B751B0F0E1F0660F771F881F991F3A
:101310001AF0BA95C9F714C0B13091F00E94300AA2
:10132000B1E008950C94300A672F782F8827B85FB2
:1013300039F0B93FCCF3869577956795B395D9F792
:101340003EF490958095709561957F4F8F4F9F4F9C
:101350000895E89409C097FB3EF4909580957095A8
:1013600061957F4F8F4F9F4F9923A9F0F92F96E9F1
:10137000BB279395F695879577956795B795F11166
:10138000F8CFFAF4BB0F11F460FF1BC06F5F7F4F03
:101390008F4F9F4F16C0882311F096E911C0772315
:1013A00021F09EE8872F762F05C0662371F096E81E
:1013B000862F70E060E02AF09A95660F771F881FED
:1013C000DAF7880F9695879597F9089597F99F67AB
:1013D00080E870E060E008959FEF80EC08950024BD
:1013E0000A941616170618060906089500240A948A
:1013F00012161306140605060895092E0394000C10
:1014000011F4882352F0BB0F40F4BF2B11F460FF9E
:1014100004C06F5F7F4F8F4F9F4F089557FD9058C7
:10142000440F551F59F05F3F71F04795880F97FBA8
:10143000991F61F09F3F79F0879508951216130662
:101440001406551FF2CF4695F1DF08C01616170691
:101450001806991FF1CF86957105610508940895C6
:10146000E894BB2766277727CB0197F908950E9458
:101470004A0A0C94FD090E94EF0938F00E94F6090F
:1014800020F0952311F00C94E6090C94EC0911243A
:101490000C94310A0E940E0A70F3959FC1F3950FC8
:1014A00050E0551F629FF001729FBB27F00DB11DE8
:1014B000639FAA27F00DB11DAA1F649F6627B00D78
:1014C000A11D661F829F2227B00DA11D621F739F61
:1014D000B00DA11D621F839FA00D611D221F749F6F
:1014E0003327A00D611D231F849F600D211D822FB6
:1014F000762F6A2F11249F5750409AF0F1F08823DD
:101500004AF0EE0FFF1FBB1F661F771F881F915009
:101510005040A9F79E3F510580F00C94E6090C94C9
:10152000310A5F3FE4F3983ED4F38695779567954B
:10153000B795F795E7959F5FC1F7FE2B880F911D33
:101540009695879597F90895AA1BBB1B51E107C093
:10155000AA1FBB1FA617B70710F0A61BB70B881F43
:10156000991F5A95A9F780959095BC01CD010895D2
:10157000FB01DC0101900D920020E1F70895AEE03F
:10158000B0E0E5ECFAE00C94800D0D891E8986E050
:101590008C831A8309838FEF9FE79E838D83AE012F
:1015A000475E5F4F6F89788DCE0101960E94E10AF8
:1015B000EF81F885E00FF11F10822E96E4E00C9485
:1015C0009C0DABE0B0E0E7EEFAE00C94720D6C011C
:1015D0007B018A01FC0117821682838181FFCCC1C5
:1015E000CE0101963C01F6019381F70193FD8591AF
:1015F00093FF81917F01882309F4BAC1853239F4C0
:1016000093FD859193FF81917F01853229F4B60185
:1016100090E00E94D80CE7CF912C212C312CFFE1D7
:10162000F315D8F08B3279F038F4803279F08332C8
:10163000A1F4232D20611DC08D3261F0803369F447
:10164000232D216016C0832D8260382EE32DE460A7
:101650003E2E2AC0F32DF8601DC037FC2DC020EDB2
:10166000280F2A3040F08E32B9F436FC81C1232D88
:101670002064322E19C036FE06C08AE0989E200DE6
:101680001124922E11C0EAE02E9E200D1124222E4C
:10169000F32DF0623F2E08C08C3621F4832D806834
:1016A000382E02C0883641F4F70193FD859193FFEF
:1016B00081917F018111B3CF982F9F7D95549330F5
:1016C00028F40C5F1F4F9FE399830DC0833631F0E0
:1016D000833771F0833509F059C021C0F80180814A
:1016E00089830E5F1F4F88248394912C530113C06C
:1016F0002801F2E04F0E511CF801A080B18036FEA7
:1017000003C0692D70E002C06FEF7FEFC5010E943A
:10171000CD0C4C018201F32DFF773F2E16C028011E
:1017200022E0420E511CF801A080B18036FE03C0B9
:10173000692D70E002C06FEF7FEFC5010E94C20CFF
:101740004C01F32DF0683F2E820133FC1BC0822D2B
:1017500090E088169906B0F4B60180E290E00E940D
:10176000D80C2A94F4CFF50137FC859137FE81918E
:101770005F01B60190E00E94D80C21102A9421E06C
:10178000821A91088114910471F7E8C0843611F02F
:10179000893641F5F80137FE07C060817181828189
:1017A00093810C5F1F4F08C060817181072E000C70
:1017B000880B990B0E5F1F4FF32DFF763F2E97FF7F
:1017C00009C090958095709561957F4F8F4F9F4F81
:1017D000F0683F2E2AE030E0A3010E94140D882E0D
:1017E000861845C0853731F4232D2F7EB22E2AE08E
:1017F00030E025C0932D997FB92E8F36C1F018F4B3
:10180000883579F0B5C0803719F0883721F0B0C03D
:10181000E92FE061BE2EB4FE0DC0FB2DF460BF2E9B
:1018200009C034FE0AC0292F2660B22E06C028E067
:1018300030E005C020E130E002C020E132E0F801F4
:10184000B7FE07C060817181828193810C5F1F4F59
:1018500006C06081718180E090E00E5F1F4FA301A0
:101860000E94140D882E8618FB2DFF773F2E36FE22
:101870000DC0232D2E7FA22E891458F434FE0BC0E8
:1018800032FC09C0832D8E7EA82E05C0B82CA32C57
:1018900003C0B82C01C0B92CA4FE0FC0FE01E80D96
:1018A000F11D8081803321F49A2D997EA92E09C0E3
:1018B000A2FE06C0B394B39404C08A2D867809F0C2
:1018C000B394A3FC11C0A0FE06C0B21488F4280C87
:1018D000922C9B180EC0B21460F4B60180E290E026
:1018E0000E94D80CB394F7CFB21418F42B1802C08E
:1018F000982C212CA4FE10C0B60180E390E00E9439
:10190000D80CA2FE17C0A1FC03C088E790E002C07B
:1019100088E590E0B6010CC08A2D867859F0A1FECA
:1019200002C08BE201C080E2A7FC8DE2B60190E02C
:101930000E94D80C891438F4B60180E390E00E942C
:10194000D80C9A94F7CF8A94F301E80DF11D8081A9
:10195000B60190E00E94D80C8110F5CF222009F446
:1019600042CEB60180E290E00E94D80C2A94F6CFD5
:10197000F6018681978102C08FEF9FEF2B96E2E1FF
:101980000C948E0DFC010590615070400110D8F749
:10199000809590958E0F9F1F0895FC0161507040B7
:1019A00001900110D8F7809590958E0F9F1F089594
:1019B0000F931F93CF93DF93FB01238121FD03C07E
:1019C0008FEF9FEF2CC022FF16C0468157812481E4
:1019D00035814217530744F4A081B1819D012F5FE7
:1019E0003F4F318320838C93268137812F5F3F4F78
:1019F0003783268314C08B01EC01FB010084F18541
:101A0000E02D0995892BE1F6D80116968D919C91D0
:101A10001797019617969C938E931697CE01DF9198
:101A2000CF911F910F910895FA01AA27283051F103
:101A3000203181F1E8946F936E7F6E5F7F4F8F4FFF
:101A40009F4FAF4FB1E03ED0B4E03CD0670F781F5E
:101A5000891F9A1FA11D680F791F8A1F911DA11D43
:101A60006A0F711D811D911DA11D20D009F468947C
:101A70003F912AE0269F11243019305D3193DEF624
:101A8000CF010895462F4770405D4193B3E00FD0DA
:101A9000C9F7F6CF462F4F70405D4A3318F0495DC5
:101AA00031FD4052419302D0A9F7EACFB4E0A695A8
:101AB0009795879577956795BA95C9F700976105CA
:101AC000710508959B01AC010A2E06945795479520
:101AD00037952795BA95C9F7620F731F841F951F15
:101AE000A01D08952F923F924F925F926F927F9226
:101AF0008F929F92AF92BF92CF92DF92EF92FF921E
:101B00000F931F93CF93DF93CDB7DEB7CA1BDB0BC9
:101B10000FB6F894DEBF0FBECDBF09942A8839886E
:101B200048885F846E847D848C849B84AA84B98475
:101B3000C884DF80EE80FD800C811B81AA81B98181
:101B4000CE0FD11D0FB6F894DEBF0FBECDBFED0195
:061B50000895F894FFCF98
:101B56004279654A6F736520506C617965720056EB
:101B6600312E30300053656C65637420536F6E6799
:101B7600004D415259202620484552204C414D42A5
:101B86002000504F5050494E472057454153454C31
:101B9600532000505552504C452044494E4F532037
:101BA600202020004E6F7720506C6179696E6700A7
:101BB600566F6C3A202564200054656D706F3A208C
:041BC6002564200072
:00000001FF
